:020000040800F2
:10000000002800206D180008FD17000803180008DC
:10001000091800080F180008151800080000000053
:100020000000000000000000000000001B18000895
:100030002718000800000000331800083F180008C7
:10004000B5180008B5180008B5180008B51800085C
:10005000B5180008B5180008B5180008B51800084C
:10006000B5180008B5180008B5180008B51800083C
:10007000B5180008B5180008B5180008B51800082C
:10008000B5180008B5180008B5180008B51800081C
:10009000B5180008B5180008B5180008B51800080C
:1000A000B5180008B5180008B5180008B5180008FC
:1000B0004D180008B518000800000000B518000829
:1000C000B51800080000000000000000B518000886
:1000D00000000000B5180008B51800080000000076
:1000E000B5180008B5180008B51800080000000091
:1000F0000000000000000000000000000000000000
:0C01000000000000000000005FF808F1A3
:10010C0010B5054C237833B9044B13B10448AFF345
:10011C0000800123237010BD30000020000000007F
:10012C00D02E000808B5034B1BB103490348AFF3AD
:10013C00008008BD0000000034000020D02E000814
:10014C0080B483B000AF7860074B1B687A6892FB71
:10015C00F3F3064A1360064B00221A6000BF0C37FB
:10016C00BD4680BC704700BF00000020500000203E
:10017C004C00002080B483B000AF7860074B1B6844
:10018C007A6892FBF3F3064A1360064B00221A605E
:10019C0000BF0C37BD4680BC704700BF000000207C
:1001AC00580000205400002080B483B000AF786069
:1001BC00074B1B687A6892FBF3F3064A1360064BF5
:1001CC0000221A6000BF0C37BD4680BC704700BFD0
:1001DC0000000020600000205C00002080B483B090
:1001EC0000AF7860074B1B687A6892FBF3F3064A02
:1001FC001360064B00221A6000BF0C37BD4680BC52
:10020C00704700BF00000020680000206400002040
:10021C0080B483B000AF7860074B1B687A6892FBA0
:10022C00F3F3064A1360064B00221A6000BF0C372A
:10023C00BD4680BC704700BF00000020700000204D
:10024C006C00002080B400AF294B1B68002B0BDD29
:10025C00274B1B68013B264A1360254B1B68002B60
:10026C0002DC244B01221A60234B1B68002B0BDD94
:10027C00214B1B68013B204A13601F4B1B68002B52
:10028C0002DC1E4B01221A601D4B1B68002B0BDD80
:10029C001B4B1B68013B1A4A1360194B1B68002B44
:1002AC0002DC184B01221A60174B1B68002B0BDD6C
:1002BC00154B1B68013B144A1360134B1B68002B36
:1002CC0002DC124B01221A60114B1B68002B0BDD58
:1002DC000F4B1B68013B0E4A13600D4B1B68002B28
:1002EC0002DC0C4B01221A6000BFBD4680BC70477B
:1002FC00500000204C00002058000020540000202A
:10030C00600000205C0000206800002064000020D9
:10031C00700000206C00002080B584B000AF7860C5
:10032C0039600123FB607B68002B40F0C380002206
:10033C004FF48071B14801F0A3FD01224FF400711C
:10034C00AE4801F09DFD01224FF48061AB4801F0F5
:10035C0097FD01224FF40061A84801F091FD0122A4
:10036C004FF48051A54801F08BFD01224FF4005150
:10037C00A24801F085FD01224FF480419F4801F015
:10038C007FFD01224FF400419C4801F079FD3B6850
:10039C005AB2FB685BB213405BB2DBB2C3F1010330
:1003AC00DBB21A464FF40041954801F069FD3B68F9
:1003BC005B103B603B685AB2FB685BB213405BB2AC
:1003CC00DBB2C3F10103DBB21A464FF480418C4817
:1003DC0001F056FD3B685B103B603B685AB2FB6812
:1003EC005BB213405BB2DBB2C3F10103DBB21A4662
:1003FC004FF40051824801F043FD3B685B103B60B9
:10040C003B685AB2FB685BB213405BB2DBB2C3F120
:10041C000103DBB21A464FF48051794801F030FDEC
:10042C003B685B103B603B685AB2FB685BB21340A5
:10043C005BB2DBB2C3F10103DBB21A464FF40061CD
:10044C006F4801F01DFD3B685B103B603B685AB286
:10045C00FB685BB213405BB2DBB2C3F10103DBB2EE
:10046C001A464FF48061664801F00AFD3B685B1048
:10047C003B603B685AB2FB685BB213405BB2DBB2C9
:10048C00C3F10103DBB21A4608215D4801F0F8FC08
:10049C003B685B103B603B685AB2FB685BB2134035
:1004AC005BB2DBB2C3F10103DBB21A460421544840
:1004BC0001F0E6FC7B68012B40F0C88001224FF470
:1004CC0080714E4801F0DCFC00224FF400714B4867
:1004DC0001F0D6FC01224FF48061484801F0D0FCB9
:1004EC0001224FF40061454801F0CAFC01224FF48F
:1004FC008051424801F0C4FC01224FF400513F48A6
:10050C0001F0BEFC01224FF480413C4801F0B8FCE4
:10051C0001224FF40041394801F0B2FC3B685AB259
:10052C00FB685BB213405BB2DBB2C3F10103DBB21D
:10053C001A464FF40041324801F0A2FC3B685B10B4
:10054C003B603B685AB2FB685BB213405BB2DBB2F8
:10055C00C3F10103DBB21A464FF48041284801F085
:10056C008FFC3B685B103B603B685AB2FB685BB22C
:10057C0013405BB2DBB2C3F10103DBB21A464FF49A
:10058C0000511F4801F07CFC3B685B103B603B68F2
:10059C005AB2FB685BB213405BB2DBB2C3F101032E
:1005AC00DBB21A464FF48051154801F069FC3B68E8
:1005BC005B103B603B685AB2FB685BB213405BB2AA
:1005CC00DBB2C3F10103DBB21A464FF400610C48F5
:1005DC0001F056FC3B685B103B603B685AB2FB6811
:1005EC005BB213405BB2DBB2C3F10103DBB21A4660
:1005FC004FF48061024801F043FC03E0000C014021
:10060C00000801403B685B103B603B685AB2FB68DA
:10061C005BB213405BB2DBB2C3F10103DBB21A462F
:10062C000821B24801F02CFC3B685B103B603B6836
:10063C005AB2FB685BB213405BB2DBB2C3F101038D
:10064C00DBB21A460421A94801F01AFC7B68022B84
:10065C0040F0C38001224FF48071A54801F010FCDA
:10066C0001224FF40071A24801F00AFC00224FF461
:10067C0080619F4801F004FC01224FF400619C480A
:10068C0001F0FEFB01224FF48051994801F0F8FB78
:10069C0001224FF40051964801F0F2FB01224FF475
:1006AC008041934801F0ECFB01224FF4004190484B
:1006BC0001F0E6FB3B685AB2FB685BB213405BB2DD
:1006CC00DBB2C3F10103DBB21A464FF40041874899
:1006DC0001F0D6FB3B685B103B603B685AB2FB6891
:1006EC005BB213405BB2DBB2C3F10103DBB21A465F
:1006FC004FF480417D4801F0C3FB3B685B103B60CD
:10070C003B685AB2FB685BB213405BB2DBB2C3F11D
:10071C000103DBB21A464FF40051744801F0B0FBF0
:10072C003B685B103B603B685AB2FB685BB21340A2
:10073C005BB2DBB2C3F10103DBB21A464FF480515A
:10074C006A4801F09DFB3B685B103B603B685AB20A
:10075C00FB685BB213405BB2DBB2C3F10103DBB2EB
:10076C001A464FF40061614801F08AFB3B685B104C
:10077C003B603B685AB2FB685BB213405BB2DBB2C6
:10078C00C3F10103DBB21A464FF48061574801F004
:10079C0077FB3B685B103B603B685AB2FB685BB213
:1007AC0013405BB2DBB2C3F10103DBB21A46082182
:1007BC004E4801F065FB3B685B103B603B685AB2EE
:1007CC00FB685BB213405BB2DBB2C3F10103DBB27B
:1007DC001A460421454801F053FB7B68032B40F07B
:1007EC00C98001224FF48071414801F049FB01227C
:1007FC004FF400713E4801F043FB01224FF480613D
:10080C003B4801F03DFB00224FF40061384801F0F9
:10081C0037FB01224FF48051354801F031FB0122A6
:10082C004FF40051324801F02BFB01224FF4804170
:10083C002F4801F025FB01224FF400412C4801F018
:10084C001FFB3B685AB2FB685BB213405BB2DBB276
:10085C00C3F10103DBB21A464FF40041234801F007
:10086C000FFB3B685B103B603B685AB2FB685BB2AA
:10087C0013405BB2DBB2C3F10103DBB21A464FF497
:10088C0080411A4801F0FCFA3B685B103B603B6806
:10089C005AB2FB685BB213405BB2DBB2C3F101032B
:1008AC00DBB21A464FF40051104801F0E9FA3B68EC
:1008BC005B103B603B685AB2FB685BB213405BB2A7
:1008CC00DBB2C3F10103DBB21A464FF48051074887
:1008DC0001F0D6FA3B685B103B603B685AB2FB6890
:1008EC005BB213405BB2DBB204E000BF0008014016
:1008FC00000C0140C3F10103DBB21A464FF4006156
:10090C00B14801F0BDFA3B685B103B603B685AB2E2
:10091C00FB685BB213405BB2DBB2C3F10103DBB229
:10092C001A464FF48061A84801F0AAFA3B685B10A4
:10093C003B603B685AB2FB685BB213405BB2DBB204
:10094C00C3F10103DBB21A4608219F4801F098FA63
:10095C003B685B103B603B685AB2FB685BB2134070
:10096C005BB2DBB2C3F10103DBB21A460421964839
:10097C0001F086FA7B68042B40F0C38001224FF40F
:10098C008071924801F07CFA01224FF400718F487B
:10099C0001F076FA01224FF480618C4801F070FA74
:1009AC0001224FF40061894801F06AFA00224FF4E9
:1009BC008051864801F064FA01224FF400518348BB
:1009CC0001F05EFA01224FF48041804801F058FAA0
:1009DC0001224FF400417D4801F052FA3B685AB2B3
:1009EC00FB685BB213405BB2DBB2C3F10103DBB259
:1009FC001A464FF40041744801F042FA3B685B1010
:100A0C003B603B685AB2FB685BB213405BB2DBB233
:100A1C00C3F10103DBB21A464FF480416A4801F07E
:100A2C002FFA3B685B103B603B685AB2FB685BB2C9
:100A3C0013405BB2DBB2C3F10103DBB21A464FF4D5
:100A4C000051614801F01CFA3B685B103B603B684D
:100A5C005AB2FB685BB213405BB2DBB2C3F1010369
:100A6C00DBB21A464FF48051574801F009FA3B6843
:100A7C005B103B603B685AB2FB685BB213405BB2E5
:100A8C00DBB2C3F10103DBB21A464FF400614E48EE
:100A9C0001F0F6F93B685B103B603B685AB2FB68AF
:100AAC005BB213405BB2DBB2C3F10103DBB21A469B
:100ABC004FF48061444801F0E3F93B685B103B6004
:100ACC003B685AB2FB685BB213405BB2DBB2C3F15A
:100ADC000103DBB21A4608213B4801F0D1F93B680F
:100AEC005B103B603B685AB2FB685BB213405BB275
:100AFC00DBB2C3F10103DBB21A460421324801F028
:100B0C00BFF97B68052B40F0C98001224FF480713E
:100B1C002E4801F0B5F901224FF400712B4801F079
:100B2C00AFF901224FF48061284801F0A9F90122A4
:100B3C004FF40061254801F0A3F901224FF48051D4
:100B4C00224801F09DF900224FF400511F4801F09A
:100B5C0097F901224FF480411C4801F091F90122D0
:100B6C004FF40041194801F08BF93B685AB2FB680D
:100B7C005BB213405BB2DBB2C3F10103DBB21A46CA
:100B8C004FF40041104801F07BF93B685B103B606F
:100B9C003B685AB2FB685BB213405BB2DBB2C3F189
:100BAC000103DBB21A464FF48041074801F068F9A3
:100BBC003B685B103B603B685AB2FB685BB213400E
:100BCC005BB2DBB204E000BF00080140000C014046
:100BDC00C3F10103DBB21A464FF40051B14801F0E6
:100BEC004FF93B685B103B603B685AB2FB685BB2E9
:100BFC0013405BB2DBB2C3F10103DBB21A464FF414
:100C0C008051A84801F03CF93B685B103B603B68A5
:100C1C005AB2FB685BB213405BB2DBB2C3F10103A7
:100C2C00DBB21A464FF400619E4801F029F93B688B
:100C3C005B103B603B685AB2FB685BB213405BB223
:100C4C00DBB2C3F10103DBB21A464FF48061954865
:100C5C0001F016F93B685B103B603B685AB2FB68CD
:100C6C005BB213405BB2DBB2C3F10103DBB21A46D9
:100C7C0008218C4801F004F93B685B103B603B6831
:100C8C005AB2FB685BB213405BB2DBB2C3F1010337
:100C9C00DBB21A460421834801F0F2F87B68062B7C
:100CAC0040F0C38001224FF480717F4801F0E8F8D6
:100CBC0001224FF400717C4801F0E2F801224FF45C
:100CCC008061794801F0DCF801224FF4006176482C
:100CDC0001F0D6F801224FF48051734801F0D0F89E
:100CEC0001224FF40051704801F0CAF800224FF471
:100CFC0080416D4801F0C4F801224FF400416A486C
:100D0C0001F0BEF83B685AB2FB685BB213405BB2B1
:100D1C00DBB2C3F10103DBB21A464FF40041614868
:100D2C0001F0AEF83B685B103B603B685AB2FB6865
:100D3C005BB213405BB2DBB2C3F10103DBB21A4608
:100D4C004FF48041574801F09BF83B685B103B60C7
:100D5C003B685AB2FB685BB213405BB2DBB2C3F1C7
:100D6C000103DBB21A464FF400514E4801F088F8EB
:100D7C003B685B103B603B685AB2FB685BB213404C
:100D8C005BB2DBB2C3F10103DBB21A464FF4805104
:100D9C00444801F075F83B685B103B603B685AB205
:100DAC00FB685BB213405BB2DBB2C3F10103DBB295
:100DBC001A464FF400613B4801F062F83B685B1047
:100DCC003B603B685AB2FB685BB213405BB2DBB270
:100DDC00C3F10103DBB21A464FF48061314801F0D4
:100DEC004FF83B685B103B603B685AB2FB685BB2E8
:100DFC0013405BB2DBB2C3F10103DBB21A4608212C
:100E0C00284801F03DF83B685B103B603B685AB2E8
:100E1C00FB685BB213405BB2DBB2C3F10103DBB224
:100E2C001A4604211F4801F02BF87B68072B40F071
:100E3C00C98001224FF480711B4801F021F8012276
:100E4C004FF40071184801F01BF801224FF4806137
:100E5C00154801F015F801224FF40061124801F019
:100E6C000FF801224FF480510F4801F009F80122CC
:100E7C004FF400510C4801F003F801224FF480416B
:100E8C00094800F0FDFF00224FF40041064800F035
:100E9C00F7FF3B685AB2FB685BB213405BB2DBB244
:100EAC0004E000BF00080140000C0140C3F1010345
:100EBC00DBB21A464FF40041444800F0E1FF3B68B6
:100ECC005B103B603B685AB2FB685BB213405BB291
:100EDC00DBB2C3F10103DBB21A464FF480413B484D
:100EEC0000F0CEFF3B685B103B603B685AB2FB687E
:100EFC005BB213405BB2DBB2C3F10103DBB21A4647
:100F0C004FF40051314800F0BBFF3B685B103B6075
:100F1C003B685AB2FB685BB213405BB2DBB2C3F105
:100F2C000103DBB21A464FF48051284800F0A8FFA9
:100F3C003B685B103B603B685AB2FB685BB213408A
:100F4C005BB2DBB2C3F10103DBB21A464FF40061B2
:100F5C001E4800F095FF3B685B103B603B685AB243
:100F6C00FB685BB213405BB2DBB2C3F10103DBB2D3
:100F7C001A464FF48061154800F082FF3B685B1005
:100F8C003B603B685AB2FB685BB213405BB2DBB2AE
:100F9C00C3F10103DBB21A4608210C4800F070FFC4
:100FAC003B685B103B603B685AB2FB685BB213401A
:100FBC005BB2DBB2C3F10103DBB21A460421034876
:100FCC0000F05EFF00BF1037BD4680BD0008014039
:100FDC0080B582B000AF78607B68072B4AD801A23D
:100FEC0052F823F0111000081F1000082D100008F3
:100FFC003B10000849100008571000086510000845
:10100C00731000081E4B1B7819460020FFF784F95B
:10101C0031E01B4B5B7819460120FFF77DF92AE084
:10102C00174B9B7819460220FFF776F923E0144BF7
:10103C00DB7819460320FFF76FF91CE0104B1B7986
:10104C0019460420FFF768F915E00D4B5B7919463A
:10105C000520FFF761F90EE0094B9B791946062034
:10106C00FFF75AF907E0064BDB7919460720FFF723
:10107C0053F900E000BF00BF0837BD4680BD00BF7C
:10108C001C00002080B400AF1A4B1B681A4A82FB6C
:10109C0003129210DB17D31A184A1360154B1968F8
:1010AC00154B83FB01239A10CB17D21A13469B00C6
:1010BC0013445B00CA1A114B5A60114B1B680E4A41
:1010CC0082FB03129210DB17D31A0C4A93600C4B61
:1010DC001968094B83FB01239A10CB17D21A1346BC
:1010EC009B0013445B00CA1A044BDA6000BFBD4678
:1010FC0080BC704784000020676666660400002090
:10110C008000002080B582B000AF786001227F2182
:10111C002E4800F0B5FE7B68092B53D801A252F87B
:10112C0023F000BF59110008651100087111000867
:10113C007D1100088911000895110008A111000803
:10114C00AD110008B9110008C511000800223F219B
:10115C001E4800F095FE35E0002206211B4800F0E9
:10116C008FFE2FE000225B21184800F089FE29E059
:10117C0000224F21154800F083FE23E00022662157
:10118C00124800F07DFE1DE000226D210F4800F09A
:10119C0077FE17E000227D210C4800F071FE11E073
:1011AC0000220721094800F06BFE0BE000227F2192
:1011BC00064800F065FE05E000226F21034800F0B0
:1011CC005FFE00BF00BF0837BD4680BD000C01406C
:1011DC0080B582B000AF78607B68032B00F284800E
:1011EC0001A252F823F000BF0512000841120008BA
:1011FC007D120008B9120008002240213D4800F081
:10120C003FFE012280213B4800F03AFE01224FF4C0
:10121C008071384800F034FE01224FF400713548DB
:10122C0000F02EFE344B1B681846FFF76BFF0123B2
:10123C007B605AE0012240212E4800F021FE002262
:10124C0080212C4800F01CFE01224FF480712948AB
:10125C0000F016FE01224FF40071264800F010FE3B
:10126C00254B5B681846FFF74DFF02237B603CE083
:10127C00012240211F4800F003FE012280211D485D
:10128C0000F0FEFD00224FF480711A4800F0F8FDCA
:10129C0001224FF40071174800F0F2FD164B9B68C9
:1012AC001846FFF72FFF03237B601EE0012240212D
:1012BC00104800F0E5FD012280210E4800F0E0FD11
:1012CC0001224FF480710B4800F0DAFD00224FF43C
:1012DC000071084800F0D4FD074BDB681846FFF797
:1012EC0011FF00237B6000E000BF00BF0837BD4644
:1012FC0080BD00BF000801400400002080B400AF96
:10130C00394B1B785B005AB2374B5B78DB09DBB28D
:10131C005BB213435BB2DAB2334B1A70324B5B786D
:10132C005B005AB2304B5B78DB09DBB25BB2134328
:10133C005BB2DAB22C4B5A702B4B9B785B005AB2D7
:10134C00294B9B78DB09DBB25BB213435BB2DAB29D
:10135C00254B9A70244BDB785B005AB2224BDB781E
:10136C00DB09DBB25BB213435BB2DAB21E4BDA7051
:10137C001D4B1B795B005AB21B4B1B79DB09DBB293
:10138C005BB213435BB2DAB2174B1A71164B5B7933
:10139C005B005AB2144B5B79DB09DBB25BB21343D3
:1013AC005BB2DAB2104B5A710F4B9B795B005AB29D
:1013BC000D4B9B79DB09DBB25BB213435BB2DAB248
:1013CC00094B9A71084BDB795B005AB2064BDB79FF
:1013DC00DB09DBB25BB213435BB2DAB2024BDA71FC
:1013EC0000BFBD4680BC70471C00002080B500AF1C
:1013FC0000F05CFA00F0B8F800F03EF900F0F0F8FC
:10140C004B4801F09BF90A20FEF702FF0A20FEF779
:10141C00E5FE0A20FEF7C8FE0A20FEF7ABFE4FF4ED
:10142C004870FEF78DFE434B0F221A60424B082288
:10143C001A60424B32221A60414B1B68002B0BD0B6
:10144C001021404800F034FD20213E4800F030FDD2
:10145C004FF47A70FEF7DCFE3B4B1B68002B29D057
:10146C00364B1B680133354A1360344B1B683B2BDE
:10147C0007DD324B00221A602F4B1B6801332E4ABA
:10148C0013602D4B1B683B2B07DD2B4B00221A6086
:10149C00284B1B680133274A1360264B1B68172BFC
:1014AC0002DD244B00221A60FFF7ECFD4FF47A703A
:1014BC00FEF794FE254B1B68002B15D0244B1922EC
:1014CC001A60244B1B685A1C22490A601846FFF705
:1014DC007FFE204B1B680422934202D11D4B00223D
:1014EC001A60FA20FEF760FE1B4B1B68002B13D012
:1014FC001A4B1B685A1C19490A601846FFF768FDFD
:10150C00164B1A68164B1B689A4202D1134B0022D9
:10151C001A606420FEF72EFE124B1B68002B8BD03A
:10152C00FFF7ECFE4FF44870FEF70AFE84E700BFAD
:10153C008800002084000020800000207C00002017
:10154C006C00002000080140640000205C000020BA
:10155C0014000020740000205400002078000020AB
:10156C00180000204C00002080B590B000AF07F1AF
:10157C00180328220021184601F09CFC3B1D002278
:10158C001A605A609A60DA601A610223BB61012307
:10159C00BB621023FB6200237B6307F11803184620
:1015AC0000F0A0FC0346002B01D000F0C5F80F237F
:1015BC007B600023BB600023FB6000233B610023A6
:1015CC007B613B1D0021184600F00CFF0346002BED
:1015DC0001D000F0B1F800BF4037BD4680BD00001F
:1015EC0080B586B000AF07F1080300221A605A607C
:1015FC009A60DA603B4600221A605A601D4B4FF02D
:10160C0080421A601B4B41F63F725A60194B002204
:10161C009A60184B0922DA60164B00221A61154B9E
:10162C0000229A61134801F039F80346002B01D0CF
:10163C0000F082F84FF48053BB6007F108031946A1
:10164C000C4801F0CFF90346002B01D000F074F8E0
:10165C0000233B6000237B603B461946054801F0A4
:10166C009BFB0346002B01D000F066F800BF183737
:10167C00BD4680BD8800002080B586B000AF07F164
:10168C00080300221A605A609A60DA60224B9B6948
:10169C00214A43F0040393611F4B9B6903F004033D
:1016AC007B607B681C4B9B691B4A43F0080393616E
:1016BC00194B9B6903F008033B603B6800224FF613
:1016CC00FC71164800F0DCFB00224FF67F711448C9
:1016DC0000F0D6FB4FF6FC73BB600123FB600023CC
:1016EC003B6102237B6107F1080319460B4800F0AC
:1016FC004DFA4FF67F73BB600123FB6000233B6107
:10170C0002237B6107F108031946054800F03EFAF5
:10171C0000BF1837BD4680BD0010024000080140D4
:10172C00000C014080B582B000AF7860FEF78AFDF6
:10173C0000BF0837BD4680BD80B400AF72B600BF95
:10174C00FEE7000080B485B000AF154B9B69144ACE
:10175C0043F001039361124B9B6903F00103BB60DF
:10176C00BB680F4BDB690E4A43F08053D3610C4BC3
:10177C00DB6903F080537B607B680A4B5B68FB6022
:10178C00FB6823F0E063FB60FB6843F08063FB6065
:10179C00044AFB68536000BF1437BD4680BC7047D9
:1017AC00001002400000014080B584B000AF7860AA
:1017BC007B681B68B3F1804F13D10C4BDB690B4A70
:1017CC0043F00103D361094BDB6903F00103FB60B8
:1017DC00FB68002200211C2000F0A1F91C2000F065
:1017EC00BAF900BF1037BD4680BD00BF00100240E3
:1017FC0080B400AFFEE780B400AFFEE780B400AF6A
:10180C00FEE780B400AFFEE780B400AFFEE780B423
:10181C0000AF00BFBD4680BC704780B400AF00BFB6
:10182C00BD4680BC704780B400AF00BFBD4680BCD5
:10183C00704780B500AF00F07FF800BF80BD00009E
:10184C0080B500AF024800F0C5FF00BF80BD00BFEF
:10185C008800002080B400AF00BFBD4680BC70473C
:10186C00FFF7F8FF0B480C490C4A002302E0D45850
:10187C00C4500433C4188C42F9D3094A094C0023D0
:10188C0001E013600432A242FBD301F0EFFAFFF740
:10189C00ADFD70470000002030000020142F000820
:1018AC0030000020D4000020FEE7000080B500AF1F
:1018BC00084B1B68074A43F010031360032000F029
:1018CC0023F90F2000F008F8FFF73CFF002318461F
:1018DC0080BD00BF0020024080B582B000AF7860B0
:1018EC00124B1A68124B1B7819464FF47A73B3FBE0
:1018FC00F1F3B2FBF3F3184600F03BF90346002B6F
:10190C0001D001230EE07B680F2B0AD800227968E6
:10191C004FF0FF3000F003F9064A7B681360002398
:10192C0000E0012318460837BD4680BD2400002086
:10193C002C0000202800002080B400AF054B1B7841
:10194C001A46054B1B681344034A136000BFBD467F
:10195C0080BC70472C000020D000002080B400AF69
:10196C00024B1B681846BD4680BC7047D000002057
:10197C0080B485B000AF78607B6803F00703FB6030
:10198C000C4BDB68BB60BA684FF6FF031340BB60BF
:10199C00FB681A02BB68134343F0BF6343F4003384
:1019AC00BB60044ABB68D36000BF1437BD4680BC23
:1019BC00704700BF00ED00E080B400AF044BDB6863
:1019CC001B0A03F007031846BD4680BC704700BFD6
:1019DC0000ED00E080B483B000AF0346FB7197F9D3
:1019EC000730002B0BDBFB7903F01F02064997F93C
:1019FC0007305B09012000FA02F241F8232000BFF6
:101A0C000C37BD4680BC704700E100E080B483B069
:101A1C0000AF03463960FB7197F90730002B0ADBE6
:101A2C003B68DAB20C4997F907301201D2B20B4479
:101A3C0083F800230AE03B68DAB20849FB7903F02B
:101A4C000F03043B1201D2B20B441A7600BF0C37C1
:101A5C00BD4680BC704700BF00E100E000ED00E037
:101A6C0080B489B000AFF860B9607A60FB6803F0AD
:101A7C000703FB61FB69C3F10703042B28BF042395
:101A8C00BB61FB690433062B02D9FB69033B00E005
:101A9C0000237B614FF0FF32BB6902FA03F3DA4398
:101AAC00BB681A407B699A404FF0FF317B6901FAA1
:101ABC0003F3D9437B680B40134318462437BD46C8
:101ACC0080BC704780B582B000AF78607B68013B0A
:101ADC00B3F1807F01D301230FE00A4A7B68013BFD
:101AEC0053600F214FF0FF30FFF790FF054B0022A2
:101AFC009A60044B07221A60002318460837BD462B
:101B0C0080BD00BF10E000E080B582B000AF78600F
:101B1C007868FFF72DFF00BF0837BD4680BD80B544
:101B2C0086B000AF0346B9607A60FB7300237B611B
:101B3C00FFF742FF78617A68B9687869FFF790FF20
:101B4C00024697F90F3011461846FFF75FFF00BFAA
:101B5C001837BD4680BD80B582B000AF0346FB711F
:101B6C0097F907301846FFF735FF00BF0837BD4619
:101B7C0080BD80B582B000AF78607868FFF7A2FFB7
:101B8C00034618460837BD4680BD000080B48BB0B4
:101B9C0000AF7860396000237B6200233B6248E130
:101BAC0001227B6A02FA03F3FB613B681B68FA694A
:101BBC001340BB61BA69FB699A4240F037813B68BC
:101BCC005B68A34A93425ED0A14A934275D8A14A5E
:101BDC00934258D09F4A93426FD89F4A934252D017
:101BEC009D4A934269D89D4A93424CD09B4A93425A
:101BFC0063D89B4A934246D0994A93425DD8122BA4
:101C0C002AD8122B59D801A252F823F0931C0008A1
:101C1C006D1C00087F1C0008C11C0008C71C0008B4
:101C2C00C71C0008C71C0008C71C0008C71C0008FC
:101C3C00C71C0008C71C0008C71C0008C71C0008EC
:101C4C00C71C0008C71C0008C71C0008C71C0008DC
:101C5C00751C0008891C0008824A934213D02CE0A2
:101C6C003B68DB683B6229E03B68DB6804333B6222
:101C7C0024E03B68DB6808333B621FE03B68DB68B1
:101C8C000C333B621AE03B689B68002B02D10423A7
:101C9C003B6213E03B689B68012B05D108233B6238
:101CAC007B68FA691A6109E008233B627B68FA6970
:101CBC005A6103E000233B6200E000BFBB69FF2BCD
:101CCC0001D87B6801E07B6804337B61BB69FF2B27
:101CDC0002D87B6A9B0002E07B6A083B9B003B615D
:101CEC007B691A680F213B6901FA03F3DB431A4045
:101CFC00396A3B6901FA03F31A437B691A603B6842
:101D0C005B6803F08053002B00F09080564B9B696E
:101D1C00554A43F001039361534B9B6903F0010354
:101D2C00BB60BB68514A7B6A9B08023352F8233074
:101D3C00FB607B6A03F003039B000F2202FA03F3A0
:101D4C00DB43FA681340FB607B68494A93420DD031
:101D5C007B68484A934207D07B68474A934201D13B
:101D6C00022304E0032302E0012300E000237A6A4B
:101D7C0002F0030292009340FA681343FB603B4964
:101D8C007B6A9B080233FA6841F823203B685B6846
:101D9C0003F48013002B06D0384B9A683749BB6983
:101DAC0013438B6006E0354B9A68BB69DB433349C0
:101DBC0013408B603B685B6803F40013002B06D068
:101DCC002E4BDA682D49BB691343CB6006E02B4BD5
:101DDC00DA68BB69DB4329491340CB603B685B681D
:101DEC0003F40033002B06D0244B5A682349BB69FB
:101DFC0013434B6006E0214B5A68BB69DB431F4918
:101E0C0013404B603B685B6803F48033002B06D0B7
:101E1C001A4B1A681949BB6913430B6006E0174B40
:101E2C001A68BB69DB43154913400B607B6A0133AD
:101E3C007B623B681A687B6A22FA03F3002B7FF4FF
:101E4C00AFAE00BF00BF2C37BD4680BC704700BF93
:101E5C000000321000003110000022100000211090
:101E6C000000121000001110001002400000014090
:101E7C0000080140000C014000100140000401402A
:101E8C0080B483B000AF78600B467B8013467B70C8
:101E9C007B78002B03D07A887B681A6103E07B88FF
:101EAC001A047B681A6100BF0C37BD4680BC7047B2
:101EBC0080B485B000AF78600B467B807B68DB68B4
:101ECC00FB607A88FB6813401A04FB68D9437B8853
:101EDC000B401A437B681A6100BF1437BD4680BCA7
:101EEC007047000080B586B000AF78607B68002B2F
:101EFC0001D101236CE27B681B6803F00103002B0A
:101F0C0000F08780924B5B6803F00C03042B0CD021
:101F1C008F4B5B6803F00C03082B12D18C4B5B6866
:101F2C0003F48033B3F5803F0BD1894B1B6803F46A
:101F3C000033002B6CD07B685B68002B68D10123CD
:101F4C0046E27B685B68B3F5803F06D1804B1B682B
:101F5C007F4A43F4803313602EE07B685B68002B70
:101F6C000CD17B4B1B687A4A23F480331360784B7B
:101F7C001B68774A23F4802313601DE07B685B6841
:101F8C00B3F5A02F0CD1724B1B68714A43F480231C
:101F9C0013606F4B1B686E4A43F4803313600BE085
:101FAC006B4B1B686A4A23F480331360684B1B68C5
:101FBC00674A23F4802313607B685B68002B13D083
:101FCC00FFF7CCFC386108E0FFF7C8FC02463B6920
:101FDC00D31A642B01D90323FAE15D4B1B6803F47C
:101FEC000033002BF0D014E0FFF7B8FC386108E0A8
:101FFC00FFF7B4FC02463B69D31A642B01D90323C7
:10200C00E6E1534B1B6803F40033002BF0D100E0E6
:10201C0000BF7B681B6803F00203002B63D04C4BA2
:10202C005B6803F00C03002B0BD0494B5B6803F08F
:10203C000C03082B1CD1464B5B6803F48033002B3C
:10204C0016D1434B1B6803F00203002B05D07B68B1
:10205C001B69012B01D00123BAE13D4B1B6823F016
:10206C00F8027B685B69DB00394913430B603AE08B
:10207C007B681B69002B20D0364B01221A60FFF7BE
:10208C006DFC386108E0FFF769FC02463B69D31A26
:10209C00022B01D903239BE12D4B1B6803F0020398
:1020AC00002BF0D02A4B1B6823F0F8027B685B698D
:1020BC00DB00274913430B6015E0264B00221A6006
:1020CC00FFF74CFC386108E0FFF748FC02463B691F
:1020DC00D31A022B01D903237AE11D4B1B6803F0A1
:1020EC000203002BF0D17B681B6803F00803002B64
:1020FC003AD07B689B69002B19D0174B01221A60D0
:10210C00FFF72CFC386108E0FFF728FC02463B691E
:10211C00D31A022B01D903235AE10D4B5B6A03F04E
:10212C000203002BF0D0012000F09AFA1CE00A4BBD
:10213C0000221A60FFF712FC38610FE0FFF70EFC6B
:10214C0002463B69D31A022B08D9032340E100BF96
:10215C000010024000004242800442429E4B5B6AE7
:10216C0003F00203002BE9D17B681B6803F0040326
:10217C00002B00F0A6800023FB75974BDB6903F066
:10218C008053002B0DD1944BDB69934A43F0805361
:10219C00D361914BDB6903F08053BB60BB680123B7
:1021AC00FB758E4B1B6803F48073002B18D18B4B83
:1021BC001B688A4A43F480731360FFF7CFFB3861C6
:1021CC0008E0FFF7CBFB02463B69D31A642B01D91D
:1021DC000323FDE0814B1B6803F48073002BF0D0CC
:1021EC007B68DB68012B06D17B4B1B6A7A4A43F078
:1021FC00010313622DE07B68DB68002B0CD1764B5E
:10220C001B6A754A23F001031362734B1B6A724AF3
:10221C0023F0040313621CE07B68DB68052B0CD1F4
:10222C006D4B1B6A6C4A43F0040313626A4B1B6AC6
:10223C00694A43F0010313620BE0674B1B6A664A61
:10224C0023F001031362644B1B6A634A23F00403FB
:10225C0013627B68DB68002B15D0FFF77FFB3861BE
:10226C000AE0FFF77BFB02463B69D31A41F2883246
:10227C00934201D90323ABE0574B1B6A03F00203D3
:10228C00002BEED014E0FFF769FB38610AE0FFF792
:10229C0065FB02463B69D31A41F28832934201D95D
:1022AC00032395E04C4B1B6A03F00203002BEED189
:1022BC00FB7D012B05D1484BDB69474A23F080534A
:1022CC00D3617B68DB69002B00F08180424B5B683B
:1022DC0003F00C03082B61D07B68DB69022B46D121
:1022EC003F4B00221A60FFF739FB386108E0FFF71B
:1022FC0035FB02463B69D31A022B01D9032367E055
:10230C00354B1B6803F00073002BF0D17B681B6A04
:10231C00B3F5803F08D1304B5B6823F400327B6807
:10232C009B682D4913434B602B4B5B6823F4741251
:10233C007B68196A7B685B6A0B43274913434B60C4
:10234C00274B01221A60FFF709FB386108E0FFF701
:10235C0005FB02463B69D31A022B01D9032337E054
:10236C001D4B1B6803F00073002BF0D02FE01C4BAF
:10237C0000221A60FFF7F2FA386108E0FFF7EEFA74
:10238C0002463B69D31A022B01D9032320E0124BDE
:10239C001B6803F00073002BF0D118E07B68DB693D
:1023AC00012B01D1012313E00B4B5B68FB60FB6835
:1023BC0003F480327B681B6A9A4206D1FB6803F4F3
:1023CC0070127B685B6A9A4201D0012300E0002303
:1023DC0018461837BD4680BD001002400070004002
:1023EC006000424280B584B000AF786039607B6891
:1023FC00002B01D10123D0E06A4B1B6803F00703CB
:10240C003A689A4210D9674B1B6823F0070265495A
:10241C003B6813430B60634B1B6803F007033A687C
:10242C009A4201D00123B8E07B681B6803F00203D9
:10243C00002B20D07B681B6803F00403002B05D015
:10244C00594B5B68584A43F4E06353607B681B68E4
:10245C0003F00803002B05D0534B5B68524A43F43E
:10246C0060535360504B5B6823F0F0027B689B68B1
:10247C004D4913434B607B681B6803F00103002B31
:10248C0040D07B685B68012B07D1474B1B6803F47A
:10249C000033002B15D101237FE07B685B68022B96
:1024AC0007D1414B1B6803F00073002B09D10123AA
:1024BC0073E03D4B1B6803F00203002B01D1012399
:1024CC006BE0394B5B6823F003027B685B68364931
:1024DC0013434B60FFF742FAF8600AE0FFF73EFA4D
:1024EC000246FB68D31A41F28832934201D9032386
:1024FC0053E02D4B5B6803F00C027B685B689B0020
:10250C009A42EBD1274B1B6803F007033A689A42B7
:10251C0010D2244B1B6823F0070222493B6813435B
:10252C000B60204B1B6803F007033A689A4201D0FA
:10253C00012332E07B681B6803F00403002B08D0F6
:10254C00194B5B6823F4E0627B68DB681649134324
:10255C004B607B681B6803F00803002B09D0124BFF
:10256C005B6823F460527B681B69DB000E491343E4
:10257C004B6000F021F802460B4B5B681B0903F023
:10258C000F030A49CB5C22FA03F3094A1360094B87
:10259C001B681846FFF7A0F9002318461037BD46F4
:1025AC0080BD00BF0020024000100240E82E000851
:1025BC00240000202800002080B487B000AF002346
:1025CC00FB600023BB6000237B6100237B60002346
:1025DC003B611E4B5B68FB60FB6803F00C03042B38
:1025EC0002D0082B03D027E0194B3B6127E0FB6896
:1025FC009B0C03F00F03174AD35C7B60FB6803F45E
:10260C008033002B10D0114B5B685B0C03F0010383
:10261C00114AD35CBB607B680D4A02FB03F2BB68BA
:10262C00B2FBF3F37B6104E07B680C4A02FB03F31F
:10263C007B617B693B6102E0054B3B6100BF3B6901
:10264C0018461C37BD4680BC704700BF00100240C6
:10265C0000127A00F82E0008082F000800093D002F
:10266C0080B485B000AF78600A4B1B680A4AA2FBA5
:10267C0003235B0A7A6802FB03F3FB6000BFFB6871
:10268C005A1EFA60002BF9D100BF00BF1437BD46AB
:10269C0080BC704724000020D34D621080B582B0FE
:1026AC0000AF78607B68002B01D1012341E07B688F
:1026BC0093F83D30DBB2002B06D17B68002283F807
:1026CC003C207868FFF770F87B68022283F83D2085
:1026DC007B681A687B6804331946104600F06EFA62
:1026EC007B68012283F846207B68012283F83E2018
:1026FC007B68012283F83F207B68012283F840200D
:10270C007B68012283F841207B68012283F84220F8
:10271C007B68012283F843207B68012283F84420E4
:10272C007B68012283F845207B68012283F83D20D9
:10273C00002318460837BD4680BD000080B485B024
:10274C0000AF78607B6893F83D30DBB2012B01D091
:10275C00012335E07B68022283F83D207B681B68EF
:10276C00DA687B681B6842F00102DA607B681B68E0
:10277C00164A934209D07B681B68B3F1804F04D092
:10278C007B681B68124A934211D17B681B689B685B
:10279C0003F00703FB60FB68062B10D07B681B68FB
:1027AC001A687B681B6842F001021A6007E07B68BC
:1027BC001B681A687B681B6842F001021A600023D0
:1027CC0018461437BD4680BC704700BF002C014032
:1027DC000004004080B582B000AF78607B681B6855
:1027EC001B6903F00203022B22D17B681B68DB6898
:1027FC0003F00203022B1BD17B681B686FF00202F3
:10280C001A617B6801221A777B681B689B6903F04D
:10281C000303002B03D0786800F0B4F905E0786866
:10282C0000F0A7F9786800F0B6F97B6800221A77F7
:10283C007B681B681B6903F00403042B22D17B68A3
:10284C001B68DB6803F00403042B1BD17B681B683B
:10285C006FF004021A617B6802221A777B681B688E
:10286C009B6903F44073002B03D0786800F08AF95D
:10287C0005E0786800F07DF9786800F08CF97B68E9
:10288C0000221A777B681B681B6903F00803082B6E
:10289C0022D17B681B68DB6803F00803082B1BD173
:1028AC007B681B686FF008021A617B6804221A7738
:1028BC007B681B68DB6903F00303002B03D078688B
:1028CC0000F060F905E0786800F053F9786800F0E2
:1028DC0062F97B6800221A777B681B681B6903F01E
:1028EC001003102B22D17B681B68DB6803F01003EC
:1028FC00102B1BD17B681B686FF010021A617B6870
:10290C0008221A777B681B68DB6903F44073002B81
:10291C0003D0786800F036F905E0786800F029F902
:10292C00786800F038F97B6800221A777B681B689E
:10293C001B6903F00103012B0ED17B681B68DB685C
:10294C0003F00103012B07D17B681B686FF00102B8
:10295C001A617868FEF7E6FE7B681B681B6903F05A
:10296C008003802B0ED17B681B68DB6803F080032F
:10297C00802B07D17B681B686FF080021A61786826
:10298C0000F06BFA7B681B681B6903F04003402B5B
:10299C000ED17B681B68DB6803F04003402B07D12A
:1029AC007B681B686FF040021A61786800F0FCF8D5
:1029BC007B681B681B6903F02003202B0ED17B68FE
:1029CC001B68DB6803F02003202B07D17B681B6896
:1029DC006FF020021A61786800F036FA00BF0837F1
:1029EC00BD4680BD80B584B000AF786039600023EF
:1029FC00FB737B6893F83C30012B01D10223B4E0CC
:102A0C007B68012283F83C207B68022283F83D20FE
:102A1C007B681B689B68BB60BB6823F07703BB605B
:102A2C00BB6823F47F43BB607B681B68BA689A6001
:102A3C003B681B68B3F5005F3ED0B3F5005F00F256
:102A4C008780B3F5805F00F08680B3F5805F7FD818
:102A5C00702B1AD0702B7BD8602B50D0602B77D872
:102A6C00502B3CD0502B73D8402B58D0402B6FD8C8
:102A7C00302B64D0302B6BD8202B60D0202B67D818
:102A8C00002B5CD0102B5AD062E07B6818683B6836
:102A9C0099683B685A683B68DB6800F05EF97B68B4
:102AAC001B689B68BB60BB6843F07703BB607B68AB
:102ABC001B68BA689A604FE07B6818683B68996835
:102ACC003B685A683B68DB6800F047F97B681B6819
:102ADC009A687B681B6842F480429A603CE07B6891
:102AEC0018683B6859683B68DB681A4600F0BEF80A
:102AFC007B681B685021184600F015F92CE07B68A8
:102B0C0018683B6859683B68DB681A4600F0DCF8CB
:102B1C007B681B686021184600F005F91CE07B6897
:102B2C0018683B6859683B68DB681A4600F09EF8E9
:102B3C007B681B684021184600F0F5F80CE07B68B8
:102B4C001A683B681B681946104600F0ECF803E065
:102B5C000123FB7300E000BF7B68012283F83D205A
:102B6C007B68002283F83C20FB7B18461037BD465F
:102B7C0080BD80B483B000AF786000BF0C37BD4619
:102B8C0080BC704780B483B000AF786000BF0C3756
:102B9C00BD4680BC704780B483B000AF786000BF86
:102BAC000C37BD4680BC704780B483B000AF7860F2
:102BBC0000BF0C37BD4680BC7047000080B485B0A8
:102BCC0000AF786039607B681B68FB607B68254AC6
:102BDC00934207D07B68B3F1804F03D07B68224AC5
:102BEC00934208D1FB6823F07003FB603B685B6881
:102BFC00FA681343FB607B681A4A934207D07B68E0
:102C0C00B3F1804F03D07B68174A934208D1FB681D
:102C1C0023F44073FB603B68DB68FA681343FB608A
:102C2C00FB6823F080023B685B691343FB607B68A5
:102C3C00FA681A603B689A687B68DA623B681A68C3
:102C4C007B689A627B68074A934203D13B681A6996
:102C5C007B681A637B6801225A6100BF1437BD463A
:102C6C0080BC7047002C01400004004080B487B049
:102C7C0000AFF860B9607A60FB681B6A7B61FB6827
:102C8C001B6A23F00102FB681A62FB689B693B61BB
:102C9C003B6923F0F0033B617B681B013A691343EA
:102CAC003B617B6923F00A037B617A69BB68134340
:102CBC007B61FB683A699A61FB687A691A6200BFAA
:102CCC001C37BD4680BC704780B487B000AFF8603D
:102CDC00B9607A60FB681B6A7B61FB681B6A23F036
:102CEC001002FB681A62FB689B693B613B6923F429
:102CFC0070433B617B681B033A6913433B617B69FF
:102D0C0023F0A0037B61BB681B017A6913437B61D1
:102D1C00FB683A699A61FB687A691A6200BF1C37D2
:102D2C00BD4680BC704780B485B000AF7860396018
:102D3C007B689B68FB60FB6823F07003FB603A6860
:102D4C00FB68134343F00703FB607B68FA689A60E7
:102D5C0000BF1437BD4680BC704780B487B000AF4D
:102D6C00F860B9607A603B60FB689B687B617B694B
:102D7C0023F47F437B613B681A027B681A43BB6870
:102D8C0013437A6913437B61FB687A699A6000BFCD
:102D9C001C37BD4680BC704780B485B000AF7860EE
:102DAC0039607B6893F83C30012B01D1022341E060
:102DBC007B68012283F83C207B68022283F83D204B
:102DCC007B681B685B68FB607B681B689B68BB60EF
:102DDC00FB6823F07003FB603B681B68FA681343C5
:102DEC00FB607B681B68FA685A607B681B68144A36
:102DFC00934209D07B681B68B3F1804F04D07B6889
:102E0C001B68104A93420CD1BB6823F08003BB6053
:102E1C003B685B68BA681343BB607B681B68BA6825
:102E2C009A607B68012283F83D207B68002283F83E
:102E3C003C20002318461437BD4680BC704700BFA9
:102E4C00002C01400004004080B483B000AF7860D7
:102E5C0000BF0C37BD4680BC704780B483B000AF58
:102E6C00786000BF0C37BD4680BC704770B500263B
:102E7C000C4D0D4C641BA410A64209D100F022F895
:102E8C0000260A4D0A4C641BA410A64205D170BD45
:102E9C0055F8043B98470136EEE755F8043B984744
:102EAC000136F2E70C2F00080C2F00080C2F00083D
:102EBC00102F000803460244934200D1704703F8D8
:102ECC00011BF9E7F8B500BFF8BC08BC9E4670477B
:0C2EDC00F8B500BFF8BC08BC9E4670476B
:102EE80000000000000000000102030406070809B2
:102EF80002030405060708090A0B0C0D0E0F101033
:042F080001020000C2
:042F0C003101000887
:042F10000D010008A7
:102F14000A0000000600000007000000080000008E
:102F240009000000190000000800000018244242B3
:102F34007E4242420024F400100000000100000020
:040000050800186D6A
:00000001FF
